:1000000075A00075B0FFD284D285D286D287C29403
:10001000C295C296C297D280D281D2827438115EC4
:100020001172E50C115E11727401115E117274800F
:10003000115E1172780D900087740093F5A011671E
:100040001172A3D8F4780E90009574C0115E1172ED
:10005000740093F5A011671172A3D8F480FEF5A087
:10006000C290D291C29122F5A0D290D2911172C2C7
:100070009122C28C438901758CEE758A00D28C3036
:100080008DFDC28DC28C22507265737320616E79B2
:10009000206B657900746F20636F6E74696E75658F
:0400A0002E2E2E00D2
:00000001FF
