:10170200507265737320616E79206B657900746F16
:1017120020636F6E74696E75652E2E2E0053746190
:101722007274696E672075702E2E2E00507265706D
:101732006172696E6720666F7200736574757000FE
:10174200312E54656D706572617475726500322E4A
:1017520048756D6964697479003E2E54656D7065D3
:10176200726174757265003E2E48756D69646974A4
:10177200790053797374656D20706F776572696E45
:101782006700646F776E2E2E2E00252E326600546F
:10179200656D70657261747572653A200048756D89
:1017A20069646974793A200025524800546172676D
:1017B20065743A20005461726765742068756D69BA
:1017C200646974793A0055503D2B31302020444FE2
:1017D200574E3D2B31004241434B3D2D313020537A
:0617E20045543D2D3100CD
:101A4000013000014E0101260104370000000004AE
:101A50004F000000000443459C40000433438000D5
:101A60000004274577D000043F43951333042245F3
:031A70009C400097
:1013EE00D284D285D287D283C294C295C296C29736
:1013FE0075B0FFE4F5A0D280C281C282121C1D120C
:10140E001C6FD286E53070177BFF7A177902121B9C
:10141E005C7FC0121C407BFF7A177910121B5CE5B3
:10142E0030703430840C30850930860630870320C6
:10143E0083ED753001D2967F647E00121B047F010E
:10144E00121C407BFF7A17791F121B5C7F907E0166
:10145E00121B04C29680C8E530640170A5E54E6487
:10146E0001700B7F01121C40121BECE4F54EE54E91
:10147E007090E5266401704C308646121BEC121CEF
:10148E0008121989208705C2861219D12083E97F97
:10149E0001121C407BFF7A17792E121B5C7FC01243
:1014AE001C407BFF7A17793C121B5C121BCB7F9082
:1014BE007E01121B0412150CC2867F01121C408085
:1014CE00B7E4F526E5266003021410E54D640145E8
:1014DE004C700A7F01121C4012161B8015E54D64DC
:1014EE0002454C70131219367FF47E01121B041242
:0E14FE0017E8121C310214107526010214109A
:0A1C40008FA0C290121AFEC291227A
:101C1D007F38121C407F0C121C407F01121C407F2C
:041C2D0080021C40D5
:061AFE00D2917F057E007D
:101B0400E4FDFCC3ED9FEE6480F8EC64809850150E
:101B1400E4FBFA0BBB00010AEB64644A70F50DBDEB
:051B240000010C80DE51
:011B29002299
:061B56007B007A00792BF0
:101B5C008B5B8A5C895DAB5BAA5CA95D120D8E60A8
:101B6C0013055DE55D7002055C14F9120D8EFF1214
:051B7C001C4A80E2227A
:0A1C4A008FA0D290121AFEC2912260
:101A7400E4F53AF539F538F537D2827F05FE121BC5
:101A840004C2822080FD3080FDD281ACB0E4120B10
:0F1A9400218F3A8E398D388C37121B00C2812278
:101BEC007F80121C407BFF7A177942121B5C7FC0EE
:0C1BFC00121C407BFF7A177950021B5C22
:101C0800208407754C00754D0122208507754C000E
:051C1800754D022222BF
:10198900E54D6401454C701B7F80121C407BFF7A3A
:1019990017795B121B5C7FC0121C407BFF7A177999
:1019A900508021E54D6402454C701C7F80121C401B
:1019B9007BFF7A177942121B5C7FC0121C407BFFA8
:0819C9007A177969121B5C22F8
:0F1C31002087FD7F01121C4075260175300122AE
:1019D1007F01121C407F80121C407BFF7A177974B3
:1019E100121B5C7FC0121C407BFF7A177984121B8B
:1019F1005CE4F530F54CF54D752601754E017FF42B
:0A1A01007E01121B047F01021C404D
:051C6F00D293D2922285
:051C7400C293C29222A0
:091C5400D293D292C293C29222F3
:101A0B00121C747F80121AA38F477FE5121AA38FC3
:101A1B0047121A37121C747F81121AA3121AD18F14
:0C1A2B0031121C5D121AD18F32121C66A1
:091A3700C293C292D293D2922212
:091C5D00C293D292C292D29322EA
:091C6600D293D292C292D29322D1
:101AA300E4FEEEC39408748094805016EF54807063
:101AB30004C2938002D293D292C292EF25E0FF0E2A
:0D1AC30080E0D293D292C292A293E433FF4E
:011AD00022F3
:101AD100E4FFFEEEFD7C00C3940874809480501CEA
:101AE100D292309303430701C3ED9407EC648094D1
:0C1AF100805004EF25E0FFC2920E80D769
:011AFD0022C6
:10161B00E4F556F555F554F553F55AF559F558F5D6
:10162B0057FFFEFDFC121A74AB3AAA39A938A8373A
:10163B00AF36AE35AD34AC33120A01E4FBFA798028
:10164B0078BF120807AB46AA45A944A8431208F86D
:10165B008F568E558D548C53AB25AA24A923A822C3
:10166B00120A011212EDAB42AA41A940A83F12087F
:10167B00F8AB2AAA29A928A827120807C004C00575
:10168B00C006C007AF42AE41AD40AC3FAB2AAA2962
:10169B00A928A8271208F8D003D002D001D0001235
:1016AB000A018F5A8E598D588C577F337E937D88C4
:1016BB007CC3AB5AAA59A958A857120807755EFFE5
:1016CB00755F1775608C8F648E638D628C617B0088
:1016DB007A00792B120EA67F01121C407BFF7A1722
:1016EB007991121B5C121B567FDF121C4A7F43122F
:0716FB001C4A7FC0021C40E5
:10193600121A0BAC31E4120B21E4FBFA79807843DE
:101946001208F8C004C005C006C007AC32E4120B8A
:1019560021D003D002D001D000120807E4FBFA79A7
:10196600FA78421208F8E4FBFA79807847120A01FD
:10197600E4FBFA79C078C01208078F528E518D5059
:031986008C4F2261
:1017E800121A0BAC31E4120B21E4FBFA798078432E
:1017F8001208F8C004C005C006C007AC32E4120BDA
:1018080021D003D002D001D000120807E4FBFA79F6
:10181800FA78421208F8E4FBFA79807847120A014C
:10182800E4FBFA79C078C01208078F528E518D50A8
:101838008C4F7F01121C407BFF7A17799F121B5C2B
:10184800755EFF755F1775608C8552648551638579
:101858005062854F617B007A00792B120EA6121B0D
:10186800567BFF7A1779AA121B5C7FC0121C407B3B
:10187800FF7A1779AE121B5C755EFF755F1775608E
:101888008C854B64854A638549628548617B007A0B
:1018980000792B120EA6121B567BFF7A1779AA0223
:0218A8001B5CC7
:10150C00121BA87F01121C40755EFF755F1775607A
:10151C008C854B64854A638549628548617B007A7A
:10152C0000792B120EA67BFF7A1779B7121B5C7F02
:10153C00C0121C40121B562086030215D820842092
:10154C00AF4BAE4AAD49AC48E4FBFA792078411276
:10155C0008078F4B8E4A8D498C483084FD121B2A0C
:10156C00208520AF4BAE4AAD49AC48E4FBFA7980FC
:10157C00783F1208078F4B8E4A8D498C483085FD79
:10158C00121B2A208720AF4BAE4AAD49AC48E4FB76
:10159C00FA792078411208038F4B8E4A8D498C487A
:1015AC003087FD121B2A20838EAF4BAE4AAD49AC5F
:1015BC0048E4FBFA7980783F1208038F4B8E4A8DF2
:1015CC00498C483083FD121B2A021543E4FFFEFDB3
:1015DC00FCAB4BAA4AA949A848120A9E5009E4F54B
:1015EC004BF54AF549F548E4FFFE7DC87C42AB4B10
:1015FC00AA4AA949A848120A9E600D400BE4F54B73
:0F160C00F54A7549C87548427FD07E07021B0416
:101BA8007F01121C407BFF7A1779C8121B5C7FC02B
:101BB800121C407BFF7A1779D8121B5C7FD07E07F6
:031BC800021B04F9
:101BCB00D2947F967E00121B04C294D295121B04F2
:101BDB00C295D296121B04C296D297121B04C297BF
:011BEB0022D7
:101B2A007FC0121C40755EFF755F1775608C854B10
:101B3A0064854A638549628548617B007A00792B0E
:0C1B4A00120EA67B007A00792B021B5CB7
:10080000020B8AE86480F8E933E83360110460F091
:10081000ED33EC337009E8FCE9FDEAFEEBFF22045E
:1008200060DED3EB9FEA9EE99DE8C2E78CF0C2F759
:1008300095F0400CE8CCF8E9CDF9EACEFAEBCFFB25
:10084000120B5585D0F05804700320D5B3E804701E
:10085000075002B2D5020B9492D5EC0460F7E4CCB9
:10086000C0E0C398F8603B94186008400DD0E0FBEE
:10087000020B6CE4FBFAC9FC8028E830E406E4C90A
:10088000FBE4CAFCE830E305E4C9CACBFCE8540742
:100890006010F8C3E913F9EA13FAEB13FBEC13FC4D
:1008A000D8F130F52FC3E49CFCEF9BFFEE9AFEEDF0
:1008B00099FDD0E0FBEF4E4D4C701222DB03020B92
:1008C00091EC2CFCEF33FFEE33FEED33FDED30E722
:1008D000EB020B6CEF2BFFEE3AFEED39FDD0E0FBA7
:1008E00050130BBB0003020B94ED13FDEE13FEEF50
:0808F00013FFEC13FC020B6C7A
:1008F800EC4D6011E8497017ED33EC3304600DE4FA
:10090800FCFFFEFD22E933E8330470F8020B8A127B
:100918000B5558046009E4CC24815006285009027C
:100928000B94284003020B91C0E0EB4A7044B98055
:1009380006D0E0FB020B80EF4E701CBD8008EBFF79
:10094800EAFEE9FD80EBE98DF0A4FEE5F00209E19D
:10095800E9CDF9EAFEEBFFEF89F0A4FCE5F0CE89DA
:10096800F0A42EFFE435F0CD89F0A42DFEE435F097
:100978008067EF4E7005BD80D780C3EF8BF0A4ACC5
:10098800F0EE8BF0A42CFCE435F0F8EF8AF0A42C00
:10099800E5F038FCE433CB8DF0A42CFCE5F03BF813
:1009A800EE8AF0A42CFCE5F038F8E433CF89F0A403
:1009B8002CFCE5F038CF3400CE89F0A42FFFE5F009
:1009C8003EFEE433C98DF0A42EFEE5F039CD8AF061
:1009D800A42FFFE5F03EFEE43DFD33D0E0FB5007D9
:1009E8000BBB000F020B94EC2CFCEF33FFEE33FE35
:0609F800ED33FD020B6C63
:1009FE00020B94EC5D046005E859047003020B8A47
:100A0E00120B55580460F6EC4860F2EC7004FDFED3
:100A1E00FF22C860DB2481C85009C39860025006CB
:100A2E00020B919850CAF582E9294B4A7005AB82A8
:100A3E00020B8075F0007C1A7880C3EF9BEE9AED66
:100A4E0099400DC3EF9BFFEE9AFEED99FDE842F043
:100A5E00DC23ACF0D0E0FFD0E0FED0E0FDAB822096
:100A6E00E7101BEB60BAEC2CFCEF33FFEE33FEED20
:100A7E0033FD020B6CE803F830E705C0F075F000AB
:100A8E00EF2FFFEE33FEED33FD40B830E7C280AA04
:100A9E0074F8CC6480CCC86480C8F58204604FC3FF
:100AAE00EB9FF5F0EA9E42F0E99D42F0E89C45F09E
:100ABE00603C501DE5825FFFE582D313CB5BCBF428
:100ACE002B5582FB50280ABA002409B90020088051
:100ADE001DE5825BFBE582D313CF5FCFF4C3132FEB
:100AEE005582FF50090EBE00050DBD00010CC3EB73
:100AFE009FF5F0EA9E42F0E99D42F0E89C45F060D9
:090B0E0007CC4820E701B3EC22FA
:100B170075F020800E75F010800575F0087D007E59
:100B2700007F003392D530D503120DE6EC33401029
:100B3700EF33FFEE33FEED33FDEC33FCD5F0ED2262
:0E0B4700E5F0247EA2D513CC92E7CDCEFF229E
:100E4A00E572245EF8E6057222785B300702785E66
:100E5A00E475F001120E14020D8E2000EB7F2ED2E3
:100E6A00008018EF540F2490D43440D4FF30040B80
:100E7A00EF24BFB41A0050032461FFE57360021522
:100E8A00730576E5767002057530070D785BE475B3
:100E9A00F001120E14EF020DD4021B817403D20763
:100EAA008003E4C207F5728B5B8A5C895DE4F573A3
:100EBA00F575F576E57360077F20120E8580F57566
:100ECA0074FFC201C200C202C203C205C206C2083E
:100EDA00120E53FF700D3007057F00120E96AF7683
:100EEA00AE7522B4255FC2D5C204120E53FF24D0B8
:100EFA00B40A00501A75F00A787330D50508B6FF9F
:100F0A000106C6A426F620D5047002D20380D9248D
:100F1A00CFB41A00EF5004C2E5D204021183D20101
:100F2A0080C6D20080C0D20280BCD2D580BAD20597
:100F3A0080B47F20120E852002077401B573004029
:100F4A00F1120E4AFF120E85020EBED208D2068098
:100F5A0095120E4AFB120E4AFA120E4AF94A4B70C1
:100F6A0006797A7A127BFF20022EE573602A7E00C8
:100F7A008E82758300120DA760060EEE657470F0FE
:100F8A00C2D5EBC0E0EAC0E0E9C0E0EE1211E3D05E
:100F9A00E0F9D0E0FAD0E0FB120D8EFF60AAEBC0B8
:100FAA00E0EAC0E0E9C0E0120E85D0E02401F9D001
:100FBA00E03400FAD0E0FBE5740460DCD574D98033
:100FCA0087D20280A21211C660F7E574700104127A
:100FDA000B9FA974600DE574600914F57412126D03
:100FEA00EF60F3EA30E702F404C3995077EAF42594
:100FFA00740430E701E404F574800D1211C660C16F
:10100A00EA05742574120B9FEA7871F630E701E459
:10101A00257404D57404200501141211E3E4C0E018
:10102A0012126D7871E6601320E70714F6120E6D3E
:10103A00802204F6D0E014C0E07F00120E6DE57441
:10104A006007120E641574800B300503120E64D00B
:10105A00E0020EBED0E00480C51211C660A0E5749D
:10106A0004120B9F7871EAF6E57420050260010408
:05107A0024041211E343
:10107F0074FF04C0E012126D120E6DE574200502AC
:10108F006003120E64D0E0B574E87F45120E7778D6
:10109F0071E67F2B30E7047F2DF404C0E0120E853C
:1010AF00D0E075F00A84C0F0120E6ED0E0120E6E12
:1010BF00020EBE791080027908C206C2088008D2DB
:1010CF00D5790A8004790AC2D5E574047002F574E3
:1010DF00E4FAFDFEFF120E4AFC7B08200113120EEC
:1010EF004AFD7B1030000A120E4AFE120E4AFF7B99
:1010FF0020EC3382D592D55013C3E43000069FFF06
:10110F00E49EFEE42001039DFDE49CFCE4CBF8C2C9
:10111F0001EC700CCFCECDCCE824F8F870F380172B
:10112F00C3EF33FFEE33FEED33FDEC33FCEB33FB5C
:10113F00994002FB0FD8E9EB300105F8D0E0C44825
:10114F00B201C0E00AEC4D4E4F78207B0070C2EA2E
:10115F00B5740040BCC0E01211E5D0F0D0E0200122
:10116F0004C4C0E0C4B201C0F0120E6ED0F0D5F0CE
:10117F00EB020EBE120E240F5B5310C2580F2C4CF5
:10118F000F284210C64F10CE4410CE490F414310C6
:10119F00D4551005461063450FCF47129A500F30A4
:1011AF002D0F342E0F572B0F38230F552012832A54
:1011BF000EF04800000F4FE574B4FF03757406126C
:1011CF000E4AFC120E4AFD120E4AFE120E4AFF780C
:1011DF006A020BCE790AA2D5200314300509B91083
:1011EF00020404B9080104A2D5200602500104200C
:1011FF0002689202B573005034C0E07F20300319AB
:10120F007F30A20272067205500F12123CC202C248
:10121F0006C205C2087F30800F300503E9C0E01217
:10122F000E85300503D0E0F9D0E0B573CC3005174B
:10123F007F30B9100C120E857F583004077F7880ED
:10124F0003B90803120E853002057F2D020E857F2C
:10125F00202008F87F2B2006F322920280CF7F00F8
:10126F00B407005005246AF8E6FF22286E756C6CEF
:10127F002900D201120E4A3001F8C201787330D51D
:10128F000108F6020EF02D50434958120E4A24035E
:10129F00B405004001E490129593120E76743A1241
:0A12AF000E76D2037573040210C21C
:1012B9003E9248DA3ECCCCCD3F2AAAAB4000000092
:1012C9003F8000003F9837F03FB504F33FD744FC17
:1012D9003E3172173EB172173F0515913EDE5BD95B
:1012E900D2008002C200EDD2E7F8CD33EC330470AE
:1012F9000BBD800592D5020B94020B8A40FBD314D7
:1013090060F2F5F07C3FEE7A00C39496C8948B4066
:10131900230AC89469C8941A401A0AC89468C894D8
:101329001F40110AC8945AC89425400805F07A004C
:10133900CDC2E7CDC0F08C5B8D5C8E5D8F5EEA23FC
:1013490023C0E024C9F582E43412F583120E041295
:101359000807ECC0E0EDC0E0EEC0E0EFC0E0120D20
:10136900F4A85BA95CAA5DAB5E120803D0E0FBD0D0
:10137900E0FAD0E0F9D0E0B2E7F8120A018C5B8D0F
:101389005C8E5D8F5E9012B97403120CD1A85BA9B3
:101399005CAA5DAB5E1208F8D0E0600F24D5F58237
:1013A900E43412F583120E041208078C5B8D5C8EEF
:1013B9005D8F5ED0E0C3947FFDE49400FC120B1CAA
:1013C9007B187A727931783F1208F8A85BA95CAA70
:1013D9005DAB5E12080730000B7BD97A5B79DE784A
:0513E9003E1208F8228D
:100B5500E9D2E7C933E833F892D5EDD2E7CD33ECE6
:070B650033FC5002B2D5225F
:100B6C00EC30E7100FBF000C0EBE00080DBD0004EA
:100B7C000BEB6014A2D5EB13FCED92E7FD2274FF96
:100B8C00FCFDFEFF22E480F8A2D574FF13FC7D80EF
:030B9C00E480EF03
:100B9F00F920E72824F950037907E4F42402FB181D
:100BAF00DBFDE624FB5014E9600DE4F618E604F6CD
:0F0BBF00B40A08E4F6D9F57401F60A22C2D52269
:100BCE00ED33EC3392D5FA602AB4FF33EDC2E77BF6
:100BDE00FF60067A0B79F3E4227A0B79FC20D504B8
:100BEE007A0B79F7224E614E002B494E46002D4965
:100BFE004E4600E47A08F608DAFC7B00740722E819
:100C0E00C0E0ECC0E0EDC0E0EEC0E0EFC0E0EA75A1
:100C1E00F010A4CAABF075F04DA42BFBE435F0FC3C
:100C2E00EA2410FAEB34C5FBEC34D9FCEDC2E7FF35
:100C3E0075F056A4F42411C5F0F434C58FF0A42A2F
:100C4E00E5F03BE43CF620E714120D4ED0E0FFD069
:100C5E00E0FED0E0FDD0E0FC120A018014F4041294
:100C6E000D4ED0E0FFD0E0FED0E0FDD0E0FC12084B
:100C7E00F8D0E0F8E6FAEDD2E7CD33EC332482FB80
:100C8E00E4C3CF33CFCE33CECD33CD33DBF37B07BF
:100C9E0075F00A846004F6081B0AE5F0F6088FF07A
:100CAE00740AA4FFACF08EF0740AA42CFEACF050C3
:100CBE00010C8DF0740AA42CFDE435F0F608DBDE91
:030CCE0074072286
:100CD100C0E0EFFBEEFAEDF9ECF81208F8D0E0F520
:100CE100F0EFFBEEFAEDF9ECF8120DF4A3A3A3A3D8
:100CF100E8C0E0E9C0E0EAC0E0EBC0E0C0F0120803
:100D0100F8120E04A3A3A3A3120807D0F0D0E0FBAE
:0D0D1100D0E0FAD0E0F9D0E0F8D5F0D4221F
:100D1E003F8000004120000042C80000447A0000DD
:100D2E00461C400047C35000497424004B1896805F
:100D3E004CBEBC205A0E1BCA6753C21C749DC5AE56
:100D4E00FB60065407601C2323120D7CEB543860A5
:100D5E0009120D68120D771208F8ECF8EDF9EEFA9B
:100D6E00EFCB22EB120D7780F1543803241C900D3B
:100D7E001EFE93FC0EEE93FD0EEE930ECE93FF220F
:030000000218AA39
:0C18AA00787FE4F6D8FD7581760218F115
:100D8E00BB010689828A83E0225002E722BBFE0263
:090D9E00E32289828A83E4932296
:100DA700BB010CE58229F582E5833AF583E0225001
:100DB70006E92582F8E622BBFE06E92582F8E2224B
:0D0DC700E58229F582E5833AF583E4932265
:100DD400BB010689828A83F0225002F722BBFE01FE
:020DE400F322F8
:0E0DE600C3E49FFFE49EFEE49DFDE49CFC221E
:100DF400E493FC740193FD740293FE740393FF2245
:100E0400E493F8740193F9740293FA740393FB2244
:100E1400FAE6FB0808E6F925F0F618E6CA3AF622DF
:100E2400D083D082F8E4937012740193700DA3A35D
:100E340093F8740193F5828883E473740293686071
:060E4400EFA3A3A380DF71
:101B8100EFB40A07740D121B8C740A309811A899CE
:101B9100B8130CC2983098FDA899C298B811F630C4
:071BA10099FDC299F599229C
:1018B6000213EEE493A3F8E493A34003F68001F247
:1018C60008DFF48029E493A3F85407240CC8C33333
:1018D600C4540F4420C8834004F456800146F6DF02
:1018E600E4800B0102040810204080901A40E47E38
:1018F600019360BCA3FF543F30E509541FFEE493F7
:10190600A360010ECF54C025E060A840B8E493A3BD
:10191600FAE493A3F8E493A3C8C582C8CAC583CAE8
:10192600F0A3C8C582C8CAC583CADFE9DEE780BEA0
:011A73000072
:00000001FF
